{
  "contractName": "DungeonsAndDragon",
  "abi": [
    {
      "inputs": [
        {
          "internalType": "address",
          "name": "_VRFCoordinator",
          "type": "address"
        },
        {
          "internalType": "address",
          "name": "_LinkToken",
          "type": "address"
        },
        {
          "internalType": "bytes32",
          "name": "_keyHash",
          "type": "bytes32"
        }
      ],
      "stateMutability": "nonpayable",
      "type": "constructor"
    },
    {
      "anonymous": false,
      "inputs": [
        {
          "indexed": true,
          "internalType": "address",
          "name": "owner",
          "type": "address"
        },
        {
          "indexed": true,
          "internalType": "address",
          "name": "approved",
          "type": "address"
        },
        {
          "indexed": true,
          "internalType": "uint256",
          "name": "tokenId",
          "type": "uint256"
        }
      ],
      "name": "Approval",
      "type": "event"
    },
    {
      "anonymous": false,
      "inputs": [
        {
          "indexed": true,
          "internalType": "address",
          "name": "owner",
          "type": "address"
        },
        {
          "indexed": true,
          "internalType": "address",
          "name": "operator",
          "type": "address"
        },
        {
          "indexed": false,
          "internalType": "bool",
          "name": "approved",
          "type": "bool"
        }
      ],
      "name": "ApprovalForAll",
      "type": "event"
    },
    {
      "anonymous": false,
      "inputs": [
        {
          "indexed": true,
          "internalType": "address",
          "name": "from",
          "type": "address"
        },
        {
          "indexed": true,
          "internalType": "address",
          "name": "to",
          "type": "address"
        },
        {
          "indexed": true,
          "internalType": "uint256",
          "name": "tokenId",
          "type": "uint256"
        }
      ],
      "name": "Transfer",
      "type": "event"
    },
    {
      "inputs": [],
      "name": "LinkToken",
      "outputs": [
        {
          "internalType": "address",
          "name": "",
          "type": "address"
        }
      ],
      "stateMutability": "view",
      "type": "function",
      "constant": true
    },
    {
      "inputs": [],
      "name": "VRFCoordinator",
      "outputs": [
        {
          "internalType": "address",
          "name": "",
          "type": "address"
        }
      ],
      "stateMutability": "view",
      "type": "function",
      "constant": true
    },
    {
      "inputs": [
        {
          "internalType": "address",
          "name": "to",
          "type": "address"
        },
        {
          "internalType": "uint256",
          "name": "tokenId",
          "type": "uint256"
        }
      ],
      "name": "approve",
      "outputs": [],
      "stateMutability": "nonpayable",
      "type": "function"
    },
    {
      "inputs": [
        {
          "internalType": "address",
          "name": "owner",
          "type": "address"
        }
      ],
      "name": "balanceOf",
      "outputs": [
        {
          "internalType": "uint256",
          "name": "",
          "type": "uint256"
        }
      ],
      "stateMutability": "view",
      "type": "function",
      "constant": true
    },
    {
      "inputs": [
        {
          "internalType": "uint256",
          "name": "",
          "type": "uint256"
        }
      ],
      "name": "characters",
      "outputs": [
        {
          "internalType": "uint256",
          "name": "strength",
          "type": "uint256"
        },
        {
          "internalType": "uint256",
          "name": "dexterity",
          "type": "uint256"
        },
        {
          "internalType": "uint256",
          "name": "constitution",
          "type": "uint256"
        },
        {
          "internalType": "uint256",
          "name": "intelligence",
          "type": "uint256"
        },
        {
          "internalType": "uint256",
          "name": "wisdom",
          "type": "uint256"
        },
        {
          "internalType": "uint256",
          "name": "charisma",
          "type": "uint256"
        },
        {
          "internalType": "uint256",
          "name": "experience",
          "type": "uint256"
        },
        {
          "internalType": "string",
          "name": "name",
          "type": "string"
        }
      ],
      "stateMutability": "view",
      "type": "function",
      "constant": true
    },
    {
      "inputs": [
        {
          "internalType": "uint256",
          "name": "tokenId",
          "type": "uint256"
        }
      ],
      "name": "getApproved",
      "outputs": [
        {
          "internalType": "address",
          "name": "",
          "type": "address"
        }
      ],
      "stateMutability": "view",
      "type": "function",
      "constant": true
    },
    {
      "inputs": [
        {
          "internalType": "address",
          "name": "owner",
          "type": "address"
        },
        {
          "internalType": "address",
          "name": "operator",
          "type": "address"
        }
      ],
      "name": "isApprovedForAll",
      "outputs": [
        {
          "internalType": "bool",
          "name": "",
          "type": "bool"
        }
      ],
      "stateMutability": "view",
      "type": "function",
      "constant": true
    },
    {
      "inputs": [],
      "name": "name",
      "outputs": [
        {
          "internalType": "string",
          "name": "",
          "type": "string"
        }
      ],
      "stateMutability": "view",
      "type": "function",
      "constant": true
    },
    {
      "inputs": [
        {
          "internalType": "uint256",
          "name": "tokenId",
          "type": "uint256"
        }
      ],
      "name": "ownerOf",
      "outputs": [
        {
          "internalType": "address",
          "name": "",
          "type": "address"
        }
      ],
      "stateMutability": "view",
      "type": "function",
      "constant": true
    },
    {
      "inputs": [],
      "name": "randomResult",
      "outputs": [
        {
          "internalType": "uint256",
          "name": "",
          "type": "uint256"
        }
      ],
      "stateMutability": "view",
      "type": "function",
      "constant": true
    },
    {
      "inputs": [
        {
          "internalType": "bytes32",
          "name": "requestId",
          "type": "bytes32"
        },
        {
          "internalType": "uint256",
          "name": "randomness",
          "type": "uint256"
        }
      ],
      "name": "rawFulfillRandomness",
      "outputs": [],
      "stateMutability": "nonpayable",
      "type": "function"
    },
    {
      "inputs": [
        {
          "internalType": "address",
          "name": "from",
          "type": "address"
        },
        {
          "internalType": "address",
          "name": "to",
          "type": "address"
        },
        {
          "internalType": "uint256",
          "name": "tokenId",
          "type": "uint256"
        }
      ],
      "name": "safeTransferFrom",
      "outputs": [],
      "stateMutability": "nonpayable",
      "type": "function"
    },
    {
      "inputs": [
        {
          "internalType": "address",
          "name": "from",
          "type": "address"
        },
        {
          "internalType": "address",
          "name": "to",
          "type": "address"
        },
        {
          "internalType": "uint256",
          "name": "tokenId",
          "type": "uint256"
        },
        {
          "internalType": "bytes",
          "name": "_data",
          "type": "bytes"
        }
      ],
      "name": "safeTransferFrom",
      "outputs": [],
      "stateMutability": "nonpayable",
      "type": "function"
    },
    {
      "inputs": [
        {
          "internalType": "address",
          "name": "operator",
          "type": "address"
        },
        {
          "internalType": "bool",
          "name": "approved",
          "type": "bool"
        }
      ],
      "name": "setApprovalForAll",
      "outputs": [],
      "stateMutability": "nonpayable",
      "type": "function"
    },
    {
      "inputs": [
        {
          "internalType": "bytes4",
          "name": "interfaceId",
          "type": "bytes4"
        }
      ],
      "name": "supportsInterface",
      "outputs": [
        {
          "internalType": "bool",
          "name": "",
          "type": "bool"
        }
      ],
      "stateMutability": "view",
      "type": "function",
      "constant": true
    },
    {
      "inputs": [],
      "name": "symbol",
      "outputs": [
        {
          "internalType": "string",
          "name": "",
          "type": "string"
        }
      ],
      "stateMutability": "view",
      "type": "function",
      "constant": true
    },
    {
      "inputs": [
        {
          "internalType": "uint256",
          "name": "tokenId",
          "type": "uint256"
        }
      ],
      "name": "tokenURI",
      "outputs": [
        {
          "internalType": "string",
          "name": "",
          "type": "string"
        }
      ],
      "stateMutability": "view",
      "type": "function",
      "constant": true
    },
    {
      "inputs": [
        {
          "internalType": "address",
          "name": "from",
          "type": "address"
        },
        {
          "internalType": "address",
          "name": "to",
          "type": "address"
        },
        {
          "internalType": "uint256",
          "name": "tokenId",
          "type": "uint256"
        }
      ],
      "name": "transferFrom",
      "outputs": [],
      "stateMutability": "nonpayable",
      "type": "function"
    },
    {
      "inputs": [
        {
          "internalType": "string",
          "name": "name",
          "type": "string"
        }
      ],
      "name": "requestNewRandomCharacter",
      "outputs": [
        {
          "internalType": "bytes32",
          "name": "",
          "type": "bytes32"
        }
      ],
      "stateMutability": "nonpayable",
      "type": "function"
    },
    {
      "inputs": [
        {
          "internalType": "uint256",
          "name": "tokenId",
          "type": "uint256"
        }
      ],
      "name": "getLevel",
      "outputs": [
        {
          "internalType": "uint256",
          "name": "",
          "type": "uint256"
        }
      ],
      "stateMutability": "view",
      "type": "function",
      "constant": true
    },
    {
      "inputs": [],
      "name": "getNumberOfCharacters",
      "outputs": [
        {
          "internalType": "uint256",
          "name": "",
          "type": "uint256"
        }
      ],
      "stateMutability": "view",
      "type": "function",
      "constant": true
    },
    {
      "inputs": [
        {
          "internalType": "uint256",
          "name": "tokenId",
          "type": "uint256"
        }
      ],
      "name": "getCharacterOverView",
      "outputs": [
        {
          "internalType": "string",
          "name": "",
          "type": "string"
        },
        {
          "internalType": "uint256",
          "name": "",
          "type": "uint256"
        },
        {
          "internalType": "uint256",
          "name": "",
          "type": "uint256"
        },
        {
          "internalType": "uint256",
          "name": "",
          "type": "uint256"
        }
      ],
      "stateMutability": "view",
      "type": "function",
      "constant": true
    },
    {
      "inputs": [
        {
          "internalType": "uint256",
          "name": "tokenId",
          "type": "uint256"
        }
      ],
      "name": "gettokenURI",
      "outputs": [
        {
          "internalType": "string",
          "name": "",
          "type": "string"
        }
      ],
      "stateMutability": "view",
      "type": "function",
      "constant": true
    },
    {
      "inputs": [
        {
          "internalType": "uint256",
          "name": "tokenId",
          "type": "uint256"
        },
        {
          "internalType": "string",
          "name": "_tokenURI",
          "type": "string"
        }
      ],
      "name": "setTokenURI",
      "outputs": [],
      "stateMutability": "nonpayable",
      "type": "function"
    }
  ],
  "bytecode": "0x60c0604052600b8054600160a01b600160e01b03191661030560a01b1790553480156200002b57600080fd5b506040516200245e3803806200245e8339810160408190526200004e91620001d4565b604080518082018252601281527144756e67656f6e73416e64447261676f6e7360701b60208083019182528351808501909452600384526211099160ea1b90840152815186938693929091620000a79160009162000111565b508051620000bd90600190602084019062000111565b5050506001600160a01b0391821660a0528116608052600980549482166001600160a01b0319958616179055600b805493909116929093169190911790915560075567016345785d8a0000600a5562000252565b8280546200011f9062000215565b90600052602060002090601f0160209004810192826200014357600085556200018e565b82601f106200015e57805160ff19168380011785556200018e565b828001600101855582156200018e579182015b828111156200018e57825182559160200191906001019062000171565b506200019c929150620001a0565b5090565b5b808211156200019c5760008155600101620001a1565b80516001600160a01b0381168114620001cf57600080fd5b919050565b600080600060608486031215620001ea57600080fd5b620001f584620001b7565b92506200020560208501620001b7565b9150604084015190509250925092565b600181811c908216806200022a57607f821691505b602082108114156200024c57634e487b7160e01b600052602260045260246000fd5b50919050565b60805160a0516121d86200028660003960008181610b99015261108a0152600081816105eb015261105b01526121d86000f3fe608060405234801561001057600080fd5b50600436106101285760003560e01c806301ffc9a71461012d57806306fdde0314610155578063081812fc1461016a578063095ea7b31461018a578063162094c41461019f5780631a65e8ab146101b257806323b872dd146101d357806333b60863146101e657806342619f66146101f957806342842e0e146102025780634810bc59146102155780634f8e2fdf1461023c5780634f95b5f01461024f57806362d36dec146102725780636352211e1461027a57806370a082311461028d57806386481d40146102a057806394985ddd146102b357806395d89b41146102c6578063a22cb465146102ce578063b88d4fde146102e1578063c87b56dd146102f4578063e985e9c514610307578063f3f0cd7f1461031a575b600080fd5b61014061013b366004611b1f565b61032d565b60405190151581526020015b60405180910390f35b61015d61037f565b60405161014c9190611b94565b61017d610178366004611ba7565b610411565b60405161014c9190611bc0565b61019d610198366004611bf0565b61049e565b005b61019d6101ad366004611cc5565b6105af565b6101c56101c0366004611d0b565b6105e4565b60405190815260200161014c565b61019d6101e1366004611d3f565b610731565b60095461017d906001600160a01b031681565b6101c560085481565b61019d610210366004611d3f565b610762565b610228610223366004611ba7565b61077d565b60405161014c989796959493929190611d7b565b600b5461017d906001600160a01b031681565b61026261025d366004611ba7565b61085d565b60405161014c9493929190611dc8565b600c546101c5565b61017d610288366004611ba7565b610a61565b6101c561029b366004611df7565b610ad8565b6101c56102ae366004611ba7565b610b5f565b61019d6102c1366004611e12565b610b8e565b61015d610c10565b61019d6102dc366004611e42565b610c1f565b61019d6102ef366004611e79565b610c2a565b61015d610302366004611ba7565b610c61565b610140610315366004611ef4565b610d39565b61015d610328366004611ba7565b610d67565b60006001600160e01b031982166380ac58cd60e01b148061035e57506001600160e01b03198216635b5e139f60e01b145b8061037957506301ffc9a760e01b6001600160e01b03198316145b92915050565b60606000805461038e90611f27565b80601f01602080910402602001604051908101604052809291908181526020018280546103ba90611f27565b80156104075780601f106103dc57610100808354040283529160200191610407565b820191906000526020600020905b8154815290600101906020018083116103ea57829003601f168201915b5050505050905090565b600061041c82610e77565b6104825760405162461bcd60e51b815260206004820152602c60248201527f4552433732313a20617070726f76656420717565727920666f72206e6f6e657860448201526b34b9ba32b73a103a37b5b2b760a11b60648201526084015b60405180910390fd5b506000908152600460205260409020546001600160a01b031690565b60006104a982610a61565b9050806001600160a01b0316836001600160a01b031614156105175760405162461bcd60e51b815260206004820152602160248201527f4552433732313a20617070726f76616c20746f2063757272656e74206f776e656044820152603960f91b6064820152608401610479565b336001600160a01b038216148061053357506105338133610d39565b6105a05760405162461bcd60e51b815260206004820152603860248201527f4552433732313a20617070726f76652063616c6c6572206973206e6f74206f776044820152771b995c881b9bdc88185c1c1c9bdd995908199bdc88185b1b60421b6064820152608401610479565b6105aa8383610e94565b505050565b6105ba335b83610f02565b6105d65760405162461bcd60e51b815260040161047990611f5c565b6105e08282610fcc565b5050565b6000600a547f00000000000000000000000000000000000000000000000000000000000000006001600160a01b03166370a08231306040518263ffffffff1660e01b81526004016106359190611bc0565b602060405180830381865afa158015610652573d6000803e3d6000fd5b505050506040513d601f19601f820116820180604052508101906106769190611fad565b10156106d85760405162461bcd60e51b815260206004820152602b60248201527f4e6f7420656e6f756768204c494e4b202d2066696c6c20636f6e74726163742060448201526a1dda5d1a0819985d58d95d60aa1b6064820152608401610479565b60006106e8600754600a54611057565b6000818152600d60209081526040909120855192935061070c929091860190611a6d565b506000818152600e6020526040902080546001600160a01b0319163317905592915050565b61073b3382610f02565b6107575760405162461bcd60e51b815260040161047990611f5c565b6105aa8383836111d3565b6105aa83838360405180602001604052806000815250610c2a565b600c818154811061078d57600080fd5b90600052602060002090600802016000915090508060000154908060010154908060020154908060030154908060040154908060050154908060060154908060070180546107da90611f27565b80601f016020809104026020016040519081016040528092919081815260200182805461080690611f27565b80156108535780601f1061082857610100808354040283529160200191610853565b820191906000526020600020905b81548152906001019060200180831161083657829003601f168201915b5050505050905088565b60606000806000600c858154811061087757610877611fc6565b9060005260206000209060080201600701600c868154811061089b5761089b611fc6565b906000526020600020906008020160050154600c87815481106108c0576108c0611fc6565b906000526020600020906008020160040154600c88815481106108e5576108e5611fc6565b906000526020600020906008020160030154600c898154811061090a5761090a611fc6565b906000526020600020906008020160020154600c8a8154811061092f5761092f611fc6565b906000526020600020906008020160010154600c8b8154811061095457610954611fc6565b9060005260206000209060080201600001546109709190611ff2565b61097a9190611ff2565b6109849190611ff2565b61098e9190611ff2565b6109989190611ff2565b6109a187610b5f565b600c88815481106109b4576109b4611fc6565b9060005260206000209060080201600601548380546109d290611f27565b80601f01602080910402602001604051908101604052809291908181526020018280546109fe90611f27565b8015610a4b5780601f10610a2057610100808354040283529160200191610a4b565b820191906000526020600020905b815481529060010190602001808311610a2e57829003601f168201915b5050505050935093509350935093509193509193565b6000818152600260205260408120546001600160a01b0316806103795760405162461bcd60e51b815260206004820152602960248201527f4552433732313a206f776e657220717565727920666f72206e6f6e657869737460448201526832b73a103a37b5b2b760b91b6064820152608401610479565b60006001600160a01b038216610b435760405162461bcd60e51b815260206004820152602a60248201527f4552433732313a2062616c616e636520717565727920666f7220746865207a65604482015269726f206164647265737360b01b6064820152608401610479565b506001600160a01b031660009081526003602052604090205490565b6000610379600c8381548110610b7757610b77611fc6565b90600052602060002090600802016006015461136f565b336001600160a01b037f00000000000000000000000000000000000000000000000000000000000000001614610c065760405162461bcd60e51b815260206004820152601f60248201527f4f6e6c7920565246436f6f7264696e61746f722063616e2066756c66696c6c006044820152606401610479565b6105e082826113c8565b60606001805461038e90611f27565b6105e03383836115f8565b610c33336105b4565b610c4f5760405162461bcd60e51b815260040161047990611f5c565b610c5b848484846116c3565b50505050565b6060610c6c82610e77565b610cd05760405162461bcd60e51b815260206004820152602f60248201527f4552433732314d657461646174613a2055524920717565727920666f72206e6f60448201526e3732bc34b9ba32b73a103a37b5b2b760891b6064820152608401610479565b6000610ce760408051602081019091526000815290565b90506000815111610d075760405180602001604052806000815250610d32565b80610d11846116f6565b604051602001610d2292919061200a565b6040516020818303038152906040525b9392505050565b6001600160a01b03918216600090815260056020908152604080832093909416825291909152205460ff1690565b6060610d7282610e77565b610dd85760405162461bcd60e51b815260206004820152603160248201527f45524337323155524953746f726167653a2055524920717565727920666f72206044820152703737b732bc34b9ba32b73a103a37b5b2b760791b6064820152608401610479565b60008281526010602052604081208054610df190611f27565b80601f0160208091040260200160405190810160405280929190818152602001828054610e1d90611f27565b8015610e6a5780601f10610e3f57610100808354040283529160200191610e6a565b820191906000526020600020905b815481529060010190602001808311610e4d57829003601f168201915b5093979650505050505050565b6000908152600260205260409020546001600160a01b0316151590565b600081815260046020526040902080546001600160a01b0319166001600160a01b0384169081179091558190610ec982610a61565b6001600160a01b03167f8c5be1e5ebec7d5bd14f71427d1e84f3dd0314c0f7b2291e5b200ac8c7c3b92560405160405180910390a45050565b6000610f0d82610e77565b610f6e5760405162461bcd60e51b815260206004820152602c60248201527f4552433732313a206f70657261746f7220717565727920666f72206e6f6e657860448201526b34b9ba32b73a103a37b5b2b760a11b6064820152608401610479565b6000610f7983610a61565b9050806001600160a01b0316846001600160a01b03161480610fb45750836001600160a01b0316610fa984610411565b6001600160a01b0316145b80610fc45750610fc48185610d39565b949350505050565b610fd582610e77565b6110385760405162461bcd60e51b815260206004820152602e60248201527f45524337323155524953746f726167653a2055524920736574206f66206e6f6e60448201526d32bc34b9ba32b73a103a37b5b2b760911b6064820152608401610479565b600082815260106020908152604090912082516105aa92840190611a6d565b60007f00000000000000000000000000000000000000000000000000000000000000006001600160a01b0316634000aea07f0000000000000000000000000000000000000000000000000000000000000000848660006040516020016110c7929190918252602082015260400190565b6040516020818303038152906040526040518463ffffffff1660e01b81526004016110f493929190612039565b6020604051808303816000875af1158015611113573d6000803e3d6000fd5b505050506040513d601f19601f820116820180604052508101906111379190612069565b50600083815260066020818152604080842054815180840189905280830186905230606082015260808082018390528351808303909101815260a090910190925281519183019190912093879052919052611193906001611ff2565b600085815260066020526040902055610fc48482604080516020808201949094528082019290925280518083038201815260609092019052805191012090565b826001600160a01b03166111e682610a61565b6001600160a01b03161461124a5760405162461bcd60e51b815260206004820152602560248201527f4552433732313a207472616e736665722066726f6d20696e636f72726563742060448201526437bbb732b960d91b6064820152608401610479565b6001600160a01b0382166112ac5760405162461bcd60e51b8152602060048201526024808201527f4552433732313a207472616e7366657220746f20746865207a65726f206164646044820152637265737360e01b6064820152608401610479565b6112b7600082610e94565b6001600160a01b03831660009081526003602052604081208054600192906112e0908490612086565b90915550506001600160a01b038216600090815260036020526040812080546001929061130e908490611ff2565b909155505060008181526002602052604080822080546001600160a01b0319166001600160a01b0386811691821790925591518493918716917fddf252ad1be2c89b69c2b068fc378daa952ba7f163c4a11628f55a4df523b3ef91a4505050565b600080600261137f846001611ff2565b61138991906120b3565b90508291505b818110156113c2579050806002816113a781866120b3565b6113b19190611ff2565b6113bb91906120b3565b905061138f565b50919050565b600c5460006113d86064846120c7565b9050600060646113ea612710866120c7565b6113f491906120b3565b90506000612710611408620f4240876120c7565b61141291906120b3565b90506000620f42406114286305f5e100886120c7565b61143291906120b3565b905060006305f5e10061144a6402540be400896120c7565b61145491906120b3565b905060006402540be40061146d64e8d4a510008a6120c7565b61147791906120b3565b90506000600c604051806101000160405280898152602001888152602001878152602001868152602001858152602001848152602001838152602001600d60008e815260200190815260200160002080546114d190611f27565b80601f01602080910402602001604051908101604052809291908181526020018280546114fd90611f27565b801561154a5780601f1061151f5761010080835404028352916020019161154a565b820191906000526020600020905b81548152906001019060200180831161152d57829003601f168201915b50505091909252505081546001818101845560009384526020938490208351600890930201918255838301519082015560408201516002820155606082015160038201556080820151600482015560a0820151600582015560c0820151600682015560e08201518051929391926115c79260078501920190611a6d565b50505060008a8152600e60205260409020546115ec906001600160a01b0316896117f3565b50505050505050505050565b816001600160a01b0316836001600160a01b031614156116565760405162461bcd60e51b815260206004820152601960248201527822a9219b99189d1030b8383937bb32903a379031b0b63632b960391b6044820152606401610479565b6001600160a01b03838116600081815260056020908152604080832094871680845294825291829020805460ff191686151590811790915591519182527f17307eab39ab6107e8899845ad3d59bd9653f200f220920489ca2b5937696c31910160405180910390a3505050565b6116ce8484846111d3565b6116da8484848461180d565b610c5b5760405162461bcd60e51b8152600401610479906120db565b60608161171a5750506040805180820190915260018152600360fc1b602082015290565b8160005b8115611744578061172e8161212d565b915061173d9050600a836120b3565b915061171e565b6000816001600160401b0381111561175e5761175e611c1a565b6040519080825280601f01601f191660200182016040528015611788576020820181803683370190505b5090505b8415610fc45761179d600183612086565b91506117aa600a866120c7565b6117b5906030611ff2565b60f81b8183815181106117ca576117ca611fc6565b60200101906001600160f81b031916908160001a9053506117ec600a866120b3565b945061178c565b6105e0828260405180602001604052806000815250611908565b60006001600160a01b0384163b1561190057604051630a85bd0160e11b81526001600160a01b0385169063150b7a0290611851903390899088908890600401612148565b6020604051808303816000875af192505050801561188c575060408051601f3d908101601f1916820190925261188991810190612185565b60015b6118e6573d8080156118ba576040519150601f19603f3d011682016040523d82523d6000602084013e6118bf565b606091505b5080516118de5760405162461bcd60e51b8152600401610479906120db565b805181602001fd5b6001600160e01b031916630a85bd0160e11b149050610fc4565b506001610fc4565b611912838361193b565b61191f600084848461180d565b6105aa5760405162461bcd60e51b8152600401610479906120db565b6001600160a01b0382166119915760405162461bcd60e51b815260206004820181905260248201527f4552433732313a206d696e7420746f20746865207a65726f20616464726573736044820152606401610479565b61199a81610e77565b156119e65760405162461bcd60e51b815260206004820152601c60248201527b115490cdcc8c4e881d1bdad95b88185b1c9958591e481b5a5b9d195960221b6044820152606401610479565b6001600160a01b0382166000908152600360205260408120805460019290611a0f908490611ff2565b909155505060008181526002602052604080822080546001600160a01b0319166001600160a01b03861690811790915590518392907fddf252ad1be2c89b69c2b068fc378daa952ba7f163c4a11628f55a4df523b3ef908290a45050565b828054611a7990611f27565b90600052602060002090601f016020900481019282611a9b5760008555611ae1565b82601f10611ab457805160ff1916838001178555611ae1565b82800160010185558215611ae1579182015b82811115611ae1578251825591602001919060010190611ac6565b50611aed929150611af1565b5090565b5b80821115611aed5760008155600101611af2565b6001600160e01b031981168114611b1c57600080fd5b50565b600060208284031215611b3157600080fd5b8135610d3281611b06565b60005b83811015611b57578181015183820152602001611b3f565b83811115610c5b5750506000910152565b60008151808452611b80816020860160208601611b3c565b601f01601f19169290920160200192915050565b602081526000610d326020830184611b68565b600060208284031215611bb957600080fd5b5035919050565b6001600160a01b0391909116815260200190565b80356001600160a01b0381168114611beb57600080fd5b919050565b60008060408385031215611c0357600080fd5b611c0c83611bd4565b946020939093013593505050565b634e487b7160e01b600052604160045260246000fd5b60006001600160401b0380841115611c4a57611c4a611c1a565b604051601f8501601f19908116603f01168101908282118183101715611c7257611c72611c1a565b81604052809350858152868686011115611c8b57600080fd5b858560208301376000602087830101525050509392505050565b600082601f830112611cb657600080fd5b610d3283833560208501611c30565b60008060408385031215611cd857600080fd5b8235915060208301356001600160401b03811115611cf557600080fd5b611d0185828601611ca5565b9150509250929050565b600060208284031215611d1d57600080fd5b81356001600160401b03811115611d3357600080fd5b610fc484828501611ca5565b600080600060608486031215611d5457600080fd5b611d5d84611bd4565b9250611d6b60208501611bd4565b9150604084013590509250925092565b60006101008a83528960208401528860408401528760608401528660808401528560a08401528460c08401528060e0840152611db981840185611b68565b9b9a5050505050505050505050565b608081526000611ddb6080830187611b68565b6020830195909552506040810192909252606090910152919050565b600060208284031215611e0957600080fd5b610d3282611bd4565b60008060408385031215611e2557600080fd5b50508035926020909101359150565b8015158114611b1c57600080fd5b60008060408385031215611e5557600080fd5b611e5e83611bd4565b91506020830135611e6e81611e34565b809150509250929050565b60008060008060808587031215611e8f57600080fd5b611e9885611bd4565b9350611ea660208601611bd4565b92506040850135915060608501356001600160401b03811115611ec857600080fd5b8501601f81018713611ed957600080fd5b611ee887823560208401611c30565b91505092959194509250565b60008060408385031215611f0757600080fd5b611f1083611bd4565b9150611f1e60208401611bd4565b90509250929050565b600181811c90821680611f3b57607f821691505b602082108114156113c257634e487b7160e01b600052602260045260246000fd5b60208082526031908201527f4552433732313a207472616e736665722063616c6c6572206973206e6f74206f6040820152701ddb995c881b9bdc88185c1c1c9bdd9959607a1b606082015260800190565b600060208284031215611fbf57600080fd5b5051919050565b634e487b7160e01b600052603260045260246000fd5b634e487b7160e01b600052601160045260246000fd5b6000821982111561200557612005611fdc565b500190565b6000835161201c818460208801611b3c565b835190830190612030818360208801611b3c565b01949350505050565b60018060a01b03841681528260208201526060604082015260006120606060830184611b68565b95945050505050565b60006020828403121561207b57600080fd5b8151610d3281611e34565b60008282101561209857612098611fdc565b500390565b634e487b7160e01b600052601260045260246000fd5b6000826120c2576120c261209d565b500490565b6000826120d6576120d661209d565b500690565b60208082526032908201527f4552433732313a207472616e7366657220746f206e6f6e20455243373231526560408201527131b2b4bb32b91034b6b83632b6b2b73a32b960711b606082015260800190565b600060001982141561214157612141611fdc565b5060010190565b6001600160a01b038581168252841660208201526040810183905260806060820181905260009061217b90830184611b68565b9695505050505050565b60006020828403121561219757600080fd5b8151610d3281611b0656fea26469706673582212200c13db4be44ee3b97b41610b1dd9299ae2bb25dd7ac9ecbc5fa690027d79431c64736f6c634300080c0033",
  "immutableReferences": {
    "73": [
      {
        "length": 32,
        "start": 1515
      },
      {
        "length": 32,
        "start": 4187
      }
    ],
    "75": [
      {
        "length": 32,
        "start": 2969
      },
      {
        "length": 32,
        "start": 4234
      }
    ]
  },
  "source": "// SPDX-License-Identifier: MIT\npragma solidity >=0.4.22 <0.9.0;\n\nimport \"@openzeppelin/contracts/token/ERC721/ERC721.sol\";\nimport \"@openzeppelin/contracts/utils/Strings.sol\";\nimport \"@openzeppelin/contracts/utils/math/SafeMath.sol\";\nimport \"@chainlink/contracts/src/v0.8/VRFConsumerBase.sol\";\n\n// import \"@chainlink/contracts/src/v0.8/VRFConsumerBase.sol\";\n\n\n// import \"@openzeppelin/contracts/token/ERC721/extensions/ERC721URIStorage.sol\";\n\n\ncontract DungeonsAndDragon is ERC721, VRFConsumerBase {\n    using SafeMath for uint256;\n    using Strings for string;\n    bytes32 internal keyHash;\n    uint256 public randomResult;\n    address public VRFCoordinator;\n    uint256 internal fee;\n    address public LinkToken;\n    uint64  private s_subscriptionId = 773;\n\n  struct Character {\n        uint256 strength;\n        uint256 dexterity;\n        uint256 constitution;\n        uint256 intelligence;\n        uint256 wisdom;\n        uint256 charisma;\n        uint256 experience;\n        string name;\n    }\n\n    Character[] public characters;\n\n    mapping(bytes32 => string) requestToCharacterName;\n    mapping(bytes32 => address) requestToSender;\n    mapping(bytes32 => uint256) requestToTokenId;\n    mapping(uint256 => string) private _tokenURIs;\n\n\n    /**\n     * Constructor inherits VRFConsumerBase\n     *\n     * Network: Rinkeby\n     VrfcoordinatorV1: 0xb3dCcb4Cf7a26f6cf6B120Cf5A73875B7BBc655B\n     LinkToken (V1/V2): 0x01BE23585060835E02B77ef475b0Cc51aA1e0709\n     KeyHash: 0x2ed0feb3e7fd2022120aa84fab1945545a9f2ffc9076fd6156fa96eaff4c1311\n     */\n\n\n     /* Network: KOVAN\n     VrfCoordinatorV1: 0xdD3782915140c8f3b190B5D67eAc6dc5760C46E9\n     LinkToken: 0xa36085F69e2889c224210F603D836748e7dC0088\n     KeyHash: 0x6c3699283bda56ad74f6b855546325b68d482e983852a7a82979cc4807b641f4\n    fee: 0.1 LINK\n\n     */\n\n\n  constructor(address _VRFCoordinator, address _LinkToken, bytes32 _keyHash )  \n//   VRFConsumerBaseV2(_VRFCoordinator, _LinkToken)\n    VRFConsumerBase(_VRFCoordinator, _LinkToken)\n\n  ERC721 (\"DungeonsAndDragons\",\"D&D\") \n\n   {   \n\n       VRFCoordinator  = _VRFCoordinator;\n       LinkToken = _LinkToken;\n       keyHash = _keyHash;\n       fee = 0.1 * 10**18; // 0.1Link\n  }\n function requestNewRandomCharacter(\n        string memory name\n    ) public returns (bytes32) {\n        require(\n            LINK.balanceOf(address(this)) >= fee,\n            \"Not enough LINK - fill contract with faucet\"\n        );\n        bytes32 requestId = requestRandomness(keyHash, fee);\n        requestToCharacterName[requestId] = name;\n        requestToSender[requestId] = msg.sender;\n        return requestId;\n    }\n\n     function fulfillRandomness(bytes32 requestId, uint256 randomNumber)\n        internal\n        override\n    {\n        uint256 newId = characters.length;\n        uint256 strength = (randomNumber % 100);\n        uint256 dexterity = ((randomNumber % 10000) / 100 );\n        uint256 constitution = ((randomNumber % 1000000) / 10000 );\n        uint256 intelligence = ((randomNumber % 100000000) / 1000000 );\n        uint256 wisdom = ((randomNumber % 10000000000) / 100000000 );\n        uint256 charisma = ((randomNumber % 1000000000000) / 10000000000);\n        uint256 experience = 0;\n\n        characters.push(\n            Character(\n                strength,\n                dexterity,\n                constitution,\n                intelligence,\n                wisdom,\n                charisma,\n                experience,\n                requestToCharacterName[requestId]\n            )\n        );\n        _safeMint(requestToSender[requestId], newId);\n    }\n\n\n    function getLevel(uint256 tokenId) public view returns (uint256) {\n        return sqrt(characters[tokenId].experience);\n    }\n\n    function getNumberOfCharacters() public view returns (uint256) {\n        return characters.length; \n    }\n\n    function getCharacterOverView(uint256 tokenId)\n        public\n        view\n        returns (\n            string memory,\n            uint256,\n            uint256,\n            uint256\n        )\n    {\n        return (\n            characters[tokenId].name,\n            characters[tokenId].strength + characters[tokenId].dexterity + characters[tokenId].constitution + characters[tokenId].intelligence + characters[tokenId].wisdom + characters[tokenId].charisma,\n            getLevel(tokenId),\n            characters[tokenId].experience\n        );\n    }\n//     function getTokenURI(uint256 tokenId) public view returns (string memory) {\n//         return tokenURI(tokenId);\n//     }\n\n//    function _baseURI(string memory _tokenURI) internal pure  returns (string memory) {\n//         return _tokenURI;\n//     }\n  function gettokenURI(uint256 tokenId) public view  returns (string memory) {\n        require(_exists(tokenId), \"ERC721URIStorage: URI query for nonexistent token\");\n\n        string memory _tokenURI = _tokenURIs[tokenId];\n        // string memory base = _baseURI();\n\n        // If there is no base URI, return the token URI.\n        // if (bytes(base).length == 0) {\n        //     return _tokenURI;\n        // }\n        // If both are set, concatenate the baseURI and tokenURI (via abi.encodePacked).\n        // if (bytes(_tokenURI).length > 0) {\n        //     return string(abi.encodePacked(base, _tokenURI));\n        // }\n        return _tokenURI;\n        // return super.tokenURI(tokenId);\n    }\n\n\n    function setTokenURI(uint256 tokenId, string memory _tokenURI) public {\n        require(\n            _isApprovedOrOwner(_msgSender(), tokenId),\n            \"ERC721: transfer caller is not owner nor approved\"\n        );\n        _setTokenURI(tokenId, _tokenURI);\n    }\n\n    /**\n     * @dev Sets `_tokenURI` as the tokenURI of `tokenId`.\n     *\n     * Requirements:\n     *\n     * - `tokenId` must exist.\n     */\n    function _setTokenURI(uint256 tokenId, string memory _tokenURI) internal virtual {\n        require(_exists(tokenId), \"ERC721URIStorage: URI set of nonexistent token\");\n        _tokenURIs[tokenId] = _tokenURI;\n    }\n\n    \n    function sqrt(uint256 x) internal pure returns (uint256 y) {\n        uint256 z = (x + 1) / 2;\n        y = x;\n        while (z < y) {\n            y = z;\n            z = (x / z + z) / 2;\n        }\n    }\n\n\n}\n",
  "sourcePath": "/Users/snallani/Documents/Chainlibnk_DnD/contracts/DungeonsAndDragon.sol",
  "compiler": {
    "name": "solc",
    "version": "0.8.12+commit.f00d7308.Emscripten.clang"
  },
  "schemaVersion": "3.4.5",
  "updatedAt": "2022-03-07T02:36:42.565Z",
  "networkType": "ethereum",
  "devdoc": {
    "kind": "dev",
    "methods": {
      "approve(address,uint256)": {
        "details": "See {IERC721-approve}."
      },
      "balanceOf(address)": {
        "details": "See {IERC721-balanceOf}."
      },
      "getApproved(uint256)": {
        "details": "See {IERC721-getApproved}."
      },
      "isApprovedForAll(address,address)": {
        "details": "See {IERC721-isApprovedForAll}."
      },
      "name()": {
        "details": "See {IERC721Metadata-name}."
      },
      "ownerOf(uint256)": {
        "details": "See {IERC721-ownerOf}."
      },
      "safeTransferFrom(address,address,uint256)": {
        "details": "See {IERC721-safeTransferFrom}."
      },
      "safeTransferFrom(address,address,uint256,bytes)": {
        "details": "See {IERC721-safeTransferFrom}."
      },
      "setApprovalForAll(address,bool)": {
        "details": "See {IERC721-setApprovalForAll}."
      },
      "supportsInterface(bytes4)": {
        "details": "See {IERC165-supportsInterface}."
      },
      "symbol()": {
        "details": "See {IERC721Metadata-symbol}."
      },
      "tokenURI(uint256)": {
        "details": "See {IERC721Metadata-tokenURI}."
      },
      "transferFrom(address,address,uint256)": {
        "details": "See {IERC721-transferFrom}."
      }
    },
    "version": 1
  },
  "userdoc": {
    "kind": "user",
    "methods": {
      "constructor": {
        "notice": "Constructor inherits VRFConsumerBase Network: Rinkeby VrfcoordinatorV1: 0xb3dCcb4Cf7a26f6cf6B120Cf5A73875B7BBc655B LinkToken (V1/V2): 0x01BE23585060835E02B77ef475b0Cc51aA1e0709 KeyHash: 0x2ed0feb3e7fd2022120aa84fab1945545a9f2ffc9076fd6156fa96eaff4c1311"
      }
    },
    "version": 1
  }
}